:1000000097C014C3B0C0AFC0EEC2ADC0ACC0ABC0EF
:10001000AAC0A9C097C2A7C0A6C0A5C0A4C0BAC1A3
:10002000B1C1B9C1C4C1C4C1C4C1CFC1CFC1CFC1A5
:10003000E6C19EC1312E3063003000310032003302
:1000400000340035003600370038003900410042E6
:100050000043004400450046005F000D0A00417562
:10006000646920436F6E636572742049204D756C1E
:1000700074696D6564696120476174657761792091
:100080005665722E0052494E470D0A005052455691
:10009000494F55530D0A004E4558540D0A0053431D
:1000A000414E0D0A00504C41590D0A0052414E4438
:1000B0004F4D0D0A004C495354360D0A004C49531C
:1000C00054350D0A004C495354340D0A004C495321
:1000D00054330D0A004C495354320D0A004C495315
:1000E00054310D0A004E58545F4C4953540D0A00C8
:1000F0005052565F4C4953540D0A004D494E5155CC
:100100004952590D0A004D454E41424C450D0A00D9
:100110004D44495341424C450D0A006F7665726665
:100120006C6F770D0A00646174616572720D0A006C
:1001300011241FBECFE5D2E0DEBFCDBF10E0A0E6A8
:10014000B0E0E6E9FBE002C005900D92A436B107ED
:10015000D9F720E0A4E6B0E001C01D92AF3BB207A2
:10016000E1F714D516C54CCF8091B8009091A80046
:10017000891789F0E82FF0E0E959FF4F90819093BB
:10018000B7008F5F883119F08093B80002C01092D9
:10019000B80081E0089580E0089581E08093B20086
:1001A00082E08093A70081ED8093A40088EE809385
:1001B000A600089590916500E92FF0E0E956FF4F01
:1001C00080839F5F983019F0909365000895109296
:1001D0006500089589E9EEDF89E9ECDF89E5EADF6A
:1001E00089E4E8CF8091BD00E5DF8091BC00E2DFCB
:1001F0008091BB00DFDF8091BA00DCDF8091B4002A
:10020000813011F080E001C080E29091B300913024
:1002100009F48061CFCF9091A500992321F09F5FD1
:100220009093A5008062C6CF2091A000E22FF0E05D
:10023000EE0FFF1FE158FF4F918380832F5F2C301B
:1002400019F02093A00008951092A0000895CF9374
:10025000C82F282F2695269526952E71822F90E05F
:10026000875C9F4FE1DF8C2F8F70880F90E0875C59
:100270009F4FCF91D9CF8091B9008093B80074DFA0
:10028000813019F48091B700E2DF6EDF813019F41C
:100290008091B700DCDF68DF813019F48091B7000E
:1002A000D6DF62DF813019F48091B700D0DF8BE5B3
:1002B00090E0BADF8091B8008093B90008958CEE89
:1002C0008093A2001092BA001092BB0008958CEEA9
:1002D0008093A2008BE89FDF85DF80E76BDF83E8F8
:1002E0009ACF83EC98DF8091A6008F5F8093A60061
:1002F000811109C081E08093B20085E08093A7005E
:1003000086EF8093A60008958091A40053DF80912A
:10031000A400863D11F481ED01C08F5F8093A4009D
:1003200059DF80E047DFDDCF83EC75DF8091A600E9
:100330008F5F8093A600811106C081E08093B20098
:1003400089E08093A70008958091BD008F70806D33
:1003500031DF40DF80E02EDFE7CF8091A70090E023
:100360008B30910508F052C0FC01E15FFF4F09940A
:100370008CEE8093A2008BE44EDF34DF80E21ADF44
:1003800083E443C08091A6008F5F8093A600811113
:1003900001C003DF9CCF8CEE8093A2008BEC3BDF8F
:1003A0008091A60080FF04C01DDF80E103DF99CFAC
:1003B000ABCF8CEE8093A2008BEC2DDF8091A6005A
:1003C00080FF04C00FDF81E5F5DEAECFBDCF8CEE40
:1003D0008093A2008BEC1FDF05DF81E5EBDE83EC71
:1003E0001ADF8091A6008F5F8093A600882371F0AA
:1003F00081E08093B20089E08093A70008958BECA0
:100400000ADFF0DE80E3D6DE83EC05CF0895CF93DC
:10041000F89419BEB99AB89ABA98C29A10BE1FBC7D
:1004200019BE80B7836080BF89B7846089BF1ABC5A
:100430008AB582608ABD83B7826083BF84E689BD46
:1004400012BE89B7806189BF8BB780648BBF85B7C7
:10045000826085BF85B78E7F85BF1092A8001092FD
:10046000B90088EF8093AA001092A00010929F001C
:100470001092B5001092B4001092B3001092B20026
:100480001092B0001092AF001092A50081E480930A
:10049000BD00C1E0C093BC0086EF8093A3000FDFD6
:1004A0001092B200C093A7008CEE8093A6008EE558
:1004B00090E0BADE84E390E0B7DE8BE590E0B4DE56
:1004C00085E890E0B1DE49DF7894CF910895E0911E
:1004D0006400E83070F087E090E0909361008093D2
:1004E0006000809164008F5F883019F18093640010
:1004F0000895F0E0E956FF4F808198EF9093BE0099
:1005000028E29091BE00992331F3C19A922F9A95D7
:10051000F1F787FD02C0C09A01C0C098880FC1984A
:10052000922F9A95F1F79091BE009F5F9093BE0035
:10053000E8CF1092640084EF91E090936100809383
:10054000600008951F920F920FB60F9211242F93FF
:100550003F934F935F936F937F938F939F93AF934B
:10056000BF93EF93FF9312BE80916200909163005E
:100570000197909363008093620020916000309116
:1005800061001216130634F42150310930936100D2
:1005900020936000892B49F484EF91E090936300ED
:1005A0008093620081E0809366008091600090916A
:1005B0006100892B39F48FEF9FEF90936100809356
:1005C000600085DFFF91EF91BF91AF919F918F9177
:1005D0007F916F915F914F913F912F910F900FBE3F
:1005E0000F901F9018951F920F920FB60F92112423
:1005F0002F938F939F938091AB009091AC0081508B
:100600009F4F893E2DEF920728F49093AC00809382
:10061000AB0004C01092AC001092AB009F918F9180
:100620002F910F900FBE0F901F9018951F920F9251
:100630000FB60F9211242F933F934F938F939F9355
:10064000EF93FF932FB58091AB009091AC00820F98
:10065000911D9093AE008093AD001FBC1092AC0032
:100660001092AB00B2990DC088B7846088BF89B77B
:10067000846089BF85B7836085BF8AB780648ABF7D
:100680006FC021E02093B50085B7826085BF85B734
:100690008E7F85BF8AB780648ABF09B602FE60C0BC
:1006A0002093B50089B78B7F89BF8091AD00909171
:1006B000AE00813039E19307E8F080EE8093A90025
:1006C0008091AA00893F0CF44BC02093AF00209189
:1006D000A800E22FF0E0E959FF4F882329F090812C
:1006E000990F90838F5FF9CF88EF8093AA0081E004
:1006F000820F26C0813042E0940790F13091A8002B
:10070000E32FF0E0E959FF4F2081220F813C99400F
:1007100008F0216020838091A9008F5F8093A90059
:10072000811102C01092B5008091AA008F5F809362
:10073000AA00811115C088EF8093AA0081E0830F81
:10074000883119F08093A80002C01092A8009091FF
:10075000A8008091B900981303C081E08093B00095
:10076000FF91EF919F918F914F913F912F910F901A
:100770000FBE0F901F90189580916600813009F090
:1007800052C010926600E9DD8091A1008F5F19F0E0
:100790008093A10005C08CE98093A1001092B30062
:1007A0008091A2008F5F8093A20081113CC08CEEEB
:1007B0008093A2008091A3008F5F19F08093A30023
:1007C0000CC086EF8093A3008EE590E02DDD84E3DE
:1007D00090E02ADD8BE590E027DD8091BA0091E082
:1007E000980F292F2F702A3019F09093BA0003C068
:1007F000895F8093BA008091BA008036A1F410928C
:10080000BA008091BB0091E0980F9093BB009F705D
:100810009A3019F4895F8093BB008091BB00803AC5
:1008200011F41092BB008091B000813029F4109235
:10083000B0008BE191E0F8DC8091AF00813029F4C9
:100840001092AF0086E291E0EFDC8091B9008093D6
:10085000B8008ADC882309F47BC18091B700833516
:1008600031F0F5DC8091B8008093B900F2CF7CDCE8
:10087000882309F46DC18091B7008C3219F083E5AB
:10088000E6DCEBCF71DC882309F462C18091B7000C
:100890008093B60069DC882309F45AC12091B60020
:1008A0008091B70090E0820F911D8F3F910509F074
:1008B0004EC1822F837009F04AC18CEF8093A5004E
:1008C0008091B8008093B900203609F4A3C0C0F528
:1008D000243109F45BC0D0F4283009F45AC048F43C
:1008E000213009F460C0233009F028C185EA90E086
:1008F00062C02C3009F4F0C0203109F01FC1109201
:10090000B2001092A70080E191E055C0283309F4AD
:1009100067C080F4283109F450C02C3209F00EC1B0
:1009200081E08093B10085E48093BD00C8DC8DEB4D
:1009300090E041C02C3409F4E3C02835F1F1FEC049
:100940002C3A09F4F1C090F42C3809F4CFC038F4F3
:10095000283609F47CC0283709F49CC0EFC0203A3F
:1009600009F465C0283A09F495C0E8C0203E09F4AE
:1009700051C030F42C3C09F4CDC0283D89F1DEC0D3
:10098000243E39F0283F09F462C0D8C01092A50077
:10099000DFC01092B4008091B200811101C0FDDB74
:1009A00086E091E008C08091B200813009F4F5DB67
:1009B00086DC8BEF90E038DCCBC08091BD008150AD
:1009C0008093BD0081E08093BC0079DC8091BD0004
:1009D0008F7019F486E48093BD0080EF90E0EBCF38
:1009E0008091B100811113C085EE90E01DDC67DCC1
:1009F00081E08093BC008091BD008F5F8093BD003B
:100A0000873408F4A5C081E48093BD00A1C0109292
:100A1000B1009EC08091B400811104C081E0809338
:100A2000B40002C01092B4008CEA90E0C4CF8CE90C
:100A30008093A1008091B300811104C081E0809374
:100A4000B30002C01092B3008EE990E0B4CF809161
:100A5000B200813031F488E08093A70084EF809366
:100A6000A6008091BC008F5F8093BC0028DC809141
:100A7000BC00982F9F709A3019F48A5F8093BC0055
:100A80008091BC00803A19F481E08093BC0087E932
:100A900090E091CF8091B200813031F488E0809372
:100AA000A70084EF8093A6008091BC00982F9F70D0
:100AB00019F486508093BC008091BC0081508093D3
:100AC000BC00FDDB8091BC00811103C089E98093EB
:100AD000BC008CE890E06FCF81E08093B10081E4AE
:100AE0008093BD00ECDB8DED90E065CF81E08093DD
:100AF000B10082E48093BD00E2DB85ED90E05BCF46
:100B000081E08093B10083E48093BD00D8DB8DEC5D
:100B100090E051CF81E08093B10084E48093BD00E8
:100B2000CEDB85EC90E047CF81E08093B10086E496
:100B30008093BD00C4DB85EB90E03DCF89E590E07C
:100B400073DB8091B60083DB8BE590E034CF93DBE1
:100B50002091A00080919F008217A9F0E82FF0E07B
:100B6000EE0FFF1FE158FF4F0190F081E02D9491AF
:100B7000992321F09A3011F03196F9CF8F5F8C30A4
:100B800059F780E0E9CF80939F00089540DCF4DDC1
:060B9000FECFF894FFCF38
:040B9600F401F40171
:0200000002C03C
:00000001FF
