:1000000098C02DC3BBC0BAC0F8C2B8C0B7C0B6C094
:10001000B5C0B4C0A1C2B2C0B1C0B0C0AFC0C4C14D
:10002000BBC1C3C1CEC1CEC1CEC1D9C1D9C1D9C155
:10003000F0C1A8C1312E30630030003100320033EE
:1000400000340035003600370038003900410042E6
:100050000043004400450046005F000D0A00417562
:10006000646920436F6E636572742049204D756C1E
:1000700074696D6564696120476174657761792091
:100080005665722E0052494E470D0A005052455691
:10009000494F55530D0A004E4558540D0A0053431D
:1000A000414E0D0A00504C41590D0A0052414E4438
:1000B0004F4D0D0A004C495354360D0A004C49531C
:1000C00054350D0A004C495354340D0A004C495321
:1000D00054330D0A004C495354320D0A004C495315
:1000E00054310D0A004E58545F4C4953540D0A00C8
:1000F0005052565F4C4953540D0A004D494E5155CC
:100100004952590D0A004D454E41424C450D0A00D9
:100110004D44495341424C450D0A006F7665726665
:100120006C6F770D0A00646174616572720D0A006C
:10013000FE0511241FBECFE5D2E0DEBFCDBF10E02B
:10014000A0E6B0E0E2E3FDE002C005900D92A83821
:10015000B107D9F720E0A8E8B0E001C01D92A13FA7
:10016000B207E1F710E0C9E9D0E003C02197FE0132
:10017000D8D5C839D107D1F730D5D9C541CF80916D
:10018000DC009091CC00891789F0E82FF0E0E5576A
:10019000FF4F90819093DB008F5F883119F080933F
:1001A000DC0002C01092DC0081E0089580E0089538
:1001B00081E08093D60082E08093CB0081ED809334
:1001C000C80088EE8093CA00089590918900E92FB5
:1001D000F0E0E554FF4F80839F5F983019F09093D3
:1001E0008900089510928900089589E9EEDF89E970
:1001F000ECDF89E5EADF89E4E8CF8091E100E5DF23
:100200008091E000E2DF8091DF00DFDF8091DE009F
:10021000DCDF8091D800813011F480E201C080E001
:100220009091D700913009F48061CFCF9091C900AF
:10023000992321F09F5F9093C9008062C6CF2091DF
:10024000C400E22FF0E0EE0FFF1FED55FF4F91834A
:1002500080832F5F2C3019F02093C40008951092F2
:10026000C4000895CF93C82F8695869586958E7184
:1002700090E0875C9F4FE3DFCF70CC0F8C2F90E036
:10028000875C9F4FCF91DBCF8091DD008093DC00B6
:1002900076DF813019F48091DB00E4DF70DF81309C
:1002A00019F48091DB00DEDF6ADF813019F4809180
:1002B000DB00D8DF64DF813019F48091DB00D2DF0E
:1002C0008BE590E0BCDF8091DC008093DD00089539
:1002D0008CEE8093C6001092DE001092DF0008952D
:1002E0008CEE8093C6008BE8A1DF87DF80E76DDFAF
:1002F00083E89CCF83EC9ADF8091CA008F5F809364
:10030000CA00811109C081E08093D60085E0809306
:10031000CB0086EF8093CA0008958091C80055DF16
:100320008091C800863D11F481ED01C08F5F8093FC
:10033000C8005BDF80E049DFDDCF83EC77DF8091B1
:10034000CA008F5F8093CA00811106C081E080934C
:10035000D60089E08093CB0008958091E1008F70F2
:10036000806D33DF42DF80E030DFE7CFE091CB000C
:100370008E2F90E08B30910508F052C0FC01E15FB8
:10038000FF4F09948CEE8093C6008BE44FDF35DF7E
:1003900080E21BDF83E443C08091CA008F5F8093BB
:1003A000CA00811101C004DF9BCF8CEE8093C60090
:1003B0008BEC3CDF8091CA0080FF04C01EDF80E12F
:1003C00004DF98CFAACF8CEE8093C6008BEC2EDF93
:1003D0008091CA0080FF04C010DF81E5F6DEADCF5A
:1003E000BCCF8CEE8093C6008BEC20DF06DF81E56E
:1003F000ECDE83EC1BDF8091CA008F5F8093CA0024
:10040000882371F081E08093D60089E08093CB004F
:1004100008958BEC0BDFF1DE80E3D7DE83EC06CFB3
:100420000895CF93F89419BEB99AB89ABA98C29A17
:1004300010BE1FBC19BE80B7836080BF89B78460BF
:1004400089BF1ABC8AB582608ABD83B7826083BFC8
:1004500084E689BD12BE89B7806189BF8BB780648D
:100460008BBF85B7826085BF85B78E7F85BF1092B1
:10047000CC001092DD0088EF8093CE001092C40073
:100480001092C3001092D9001092D8001092D70099
:100490001092D6001092D4001092D3001092C9008E
:1004A00081E48093E100C1E0C093E00086EF809397
:1004B000C7000EDF1092D600C093CB008CEE809365
:1004C000CA008EE590E0BBDE84E390E0B8DE8BE509
:1004D00090E0B5DE85E890E0B2DE48DF7894CF9119
:1004E0000895E0918800E83000F5F0E0E554FF4F12
:1004F000908188EF8093E20028E28091E2008823D7
:10050000A1F0C19A822F8A95F1F797FD02C0C09A97
:1005100001C0C098990FC198822F8A95F1F78091F8
:10052000E2008F5F8093E200E8CF87E090E0909355
:10053000610080936000809188008F5F883019F09F
:100540008093880008951092880084EF91E0909342
:1005500061008093600008951F920F920FB60F9272
:1005600011242F933F934F935F936F937F938F93B8
:100570009F93AF93BF93EF93FF9312BE809162005E
:1005800090916300019790936300809362002091A3
:100590006000309161001216130634F421503109C5
:1005A0003093610020936000892B49F484EF91E03F
:1005B000909363008093620081E080938A00809131
:1005C000600090916100892B39F48FEF9FEF909339
:1005D00061008093600085DFFF91EF91BF91AF9143
:1005E0009F918F917F916F915F914F913F912F914B
:1005F0000F900FBE0F901F9018951F920F920FB67D
:100600000F9211242F938F939F938091CF009091FD
:10061000D00081509F4F81322EE4920728F49093AE
:10062000D0008093CF0013C01092D0001092CF0062
:100630001092D2001092D1001092D90085B782603A
:1006400085BF85B78E7F85BF8AB780648ABF9F913B
:100650008F912F910F900FBE0F901F9018951F92A2
:100660000F920FB60F9211242F933F934F938F93B6
:100670009F93EF93FF932FB58091CF009091D0007F
:10068000820F911D9093D2008093D1001FBC1092D5
:10069000D0001092CF00B2990DC088B7846088BF97
:1006A00089B7846089BF85B7836085BF8AB7806456
:1006B0008ABF6FC081E08093D90095B7926095BFE3
:1006C00095B79E7F95BF9AB790649ABF09B602FE10
:1006D00060C08093D90099B79B7F99BF2091D100CA
:1006E0003091D200213049E13407E0F090EE909350
:1006F000CD009091CE00993F0CF44BC08093D30075
:100700008091CC00E82FF0E0E557FF4F992329F0C6
:100710002081220F20839F5FF9CF98EF9093CE0026
:100720008F5F26C0213082E0380798F19091CC008D
:10073000E92FF0E0E557FF4F8081880F213C3940D9
:1007400008F0816080838091CD008F5F8093CD0021
:10075000811102C01092D9008091CE008F5F19F0F4
:100760008093CE0016C088EF8093CE0081E0890F81
:10077000883161F41092CC009091CC008091DD0022
:10078000981307C081E08093D40003C08093CC000D
:10079000F3CFFF91EF919F918F914F913F912F91C7
:1007A0000F900FBE0F901F9018950F931F93CF932C
:1007B00080918A00813009F052C010928A00D6DD03
:1007C0008091C5008F5F19F08093C50005C08CE94A
:1007D0008093C5001092D7008091C6008F5F19F0FA
:1007E0008093C6003CC08CEE8093C6008091C70009
:1007F0008F5F19F08093C7000CC086EF8093C7000D
:100800008EE590E01CDD84E390E019DD8BE590E05F
:1008100016DD8091DE0091E0980F292F2F702A308D
:1008200019F09093DE0003C0895F8093DE00809111
:10083000DE008036A1F41092DE008091DF0091E0AE
:10084000980F9093DF009F709A3019F4895F80931E
:10085000DF008091DF00803A11F41092DF00809178
:10086000D400813029F41092D4008BE191E0E7DCD0
:100870008091D300813029F41092D30086E291E078
:10088000DEDC8091DD008093DC0079DC882309F4D4
:100890007CC18091DB00833531F0E4DC8091DC00A9
:1008A0008093DD00F2CF6BDC882309F46EC1809168
:1008B000DB008C3219F083E5D5DCEBCF60DC8823DC
:1008C00009F463C18091DB008093DA0058DC88234F
:1008D00009F45BC18091DA009091DB00282F30E0B1
:1008E000290F311D2F3F310509F04EC1982F93700C
:1008F00009F04AC19CEF9093C9009091DC0090935D
:10090000DD00803609F4A2C0C0F5843109F45BC073
:10091000D0F4883009F45AC048F4813009F460C03A
:10092000833009F027C185EA90E02CC18C3009F4AE
:10093000EFC0803109F01EC11092D6001092CB009A
:1009400080E191E01FC1883309F466C080F48831EA
:1009500009F44FC08C3209F00DC181E08093D500BD
:1009600085E48093E100B4DC8DEB90E00BC18C3426
:1009700009F4E2C08835E9F1FDC08C3A09F4F0C011
:1009800090F48C3809F4CEC038F4883609F47BC072
:10099000883709F49BC0EEC0803A09F464C0883AF5
:1009A00009F494C0E7C0803E09F450C030F48C3C98
:1009B00009F4CCC0883D81F1DDC0843E39F0883F28
:1009C00009F461C0D7C01092C900DFC01092D800EE
:1009D0008091D600811101C0EBDB86E091E0D2C0AE
:1009E0008091D600813009F4E3DB72DC8BEF90E07C
:1009F000C9C08091E10081508093E10081E0809343
:100A0000E00066DC8091E1008F7019F486E4809349
:100A1000E10080EF90E0B6C08091D500811113C055
:100A200085EE90E00CDC54DC81E08093E000809166
:100A3000E1008F5F8093E100873408F4A6C081E471
:100A40008093E100A2C01092D5009FC08091D80091
:100A5000811104C081E08093D80002C01092D800B8
:100A60008CEA90E08FC08CE98093C5008091D7001C
:100A7000811104C081E08093D70002C01092D7009A
:100A80008EE990E07FC08091D600813031F488E01B
:100A90008093CB0084EF8093CA008091E0008F5F49
:100AA0008093E00015DC8091E000982F9F709A30D1
:100AB00019F48A5F8093E0008091E000803A19F495
:100AC00081E08093E00087E990E05CC08091D600EF
:100AD000813031F488E08093CB0084EF8093CA00AA
:100AE0008091E000982F9F7019F486508093E00069
:100AF0008091E00081508093E000EADB8091E0008B
:100B0000811103C089E98093E0008CE890E03AC04D
:100B100081E08093D50081E48093E100D9DB8DED05
:100B200090E030C081E08093D50082E48093E100C2
:100B3000CFDB85ED90E026C081E08093D50083E493
:100B40008093E100C5DB8DEC90E01CC081E08093D8
:100B5000D50084E48093E100BBDB85EC90E012C01B
:100B600081E08093D50086E48093E100B1DB85EBE2
:100B700090E008C089E590E062DB8091DA0072DBEA
:100B80008BE590E05CDB01C07FDBE091C3008091EE
:100B9000C400E817F1F0F0E0EE0FFF1FED55FF4F36
:100BA00000811181F801C491CC2349F06C2F83EEB0
:100BB00090E0B0D0CA3019F00F5F1F4FF3CF809193
:100BC000C3008F5F8093C3008C30F9F61092C3008E
:100BD000DCCFCF911F910F91089586E690E090931E
:100BE000F0008093EF00E0916600F09167000190C3
:100BF000F081E02D099515DCD8DDFECF83EE90E085
:100C00001BC00895089580E090E008958FEF9FEF56
:100C100008958FEF9FEF08950895DC011C968D9144
:100C20009C911D97DC01ED91FC910280F381E02DF8
:100C3000099581E090E00895FC011382128288EE0C
:100C400093E0A0E0B0E084839583A683B78384E734
:100C500090E09183808384E690E09587848708956F
:100C6000BB9AC39A0895862F880F8E7162956F7014
:100C7000606122E095E059E0F89407C000000000B0
:100C800000000000000000000000879510F0C398ED
:100C900002C0C39A0000579510F40000000033E032
:100CA00049E54A95F1F700003A95D1F700009A9589
:100CB00029F700002A9521F095E0862F54E0E5CF32
:100CC00078940895CF92DF92EF92FF920F931F9343
:100CD000CF93DF936C01EB017B01E40EF51E00E086
:100CE00010E0CE15DF0561F06991D601ED91FC9120
:100CF0000190F081E02DC6010995080F191FF1CF71
:100D0000C801DF91CF911F910F91FF90EF90DF907D
:100D1000CF900895DC01ED91FC910190F081E02DE0
:100D20000994EE0FFF1F0590F491E02D0994F894BB
:020D3000FFCFF3
:100D3200F401F4016C0084000000000001060206C8
:100D4200000000000D0662060306090606060C06F0
:080D520000000000300633062A
:00000001FF
