:1018000019C033C032C031C030C02FC02EC02DC06F
:101810002CC02BC02AC029C028C027C026C025C084
:1018200024C023C022C021C020C01FC01EC01DC0B4
:101830001CC01BC011241FBECFEFD4E0DEBFCDBF44
:1018400011E0A0E0B1E0EAE3FDE102C005900D92F5
:10185000A230B107D9F712E0A2E0B1E001C01D92B9
:10186000AD30B107E1F7ADD066C2CACF9091C000EC
:1018700095FFFCCF8093C6000895CF93982F929543
:101880009F709A3010F0995A01C0905DC82FCF70A8
:10189000CA3010F0C95A01C0C05D892FE7DF8C2F14
:1018A000E5DFCF910895EF92FF920F931F93EE24FF
:1018B000FF24870113C00894E11CF11C011D111DB8
:1018C00081E2E81681EAF80687E0080780E0180759
:1018D00028F0E0910401F091050109958091C00084
:1018E00087FFE9CF8091C6001F910F91FF90EF9085
:1018F0000895CF93D8DFC82FB9DFC13610F0C75590
:1019000003C0C03308F0C0538C2FCF910895CF93FC
:10191000F0DFC82FEEDFC295C07F8C0FCF91089506
:10192000CF93C82F02C0BFDFC150CC23E1F7CF91C6
:101930000895CF93C82FB7DF803239F484E196DF62
:101940008C2F94DF80E192DF0CC0809103018F5FC8
:1019500080930301853029F4E0910401F0910501A1
:101960000995CF9108959FDF803229F484E17EDFCD
:1019700080E17CDF0895809103018F5F80930301F4
:10198000853029F4E0910401F0910501099508954D
:1019900015C02D9A2FEF30E742E0215030404040F3
:1019A000E1F700C000002D982FEF30E742E0215012
:1019B00030404040E1F700C000008150882349F7E3
:1019C0000895BF92CF92DF92EF92FF920F931F93F1
:1019D000CF93DF93000089E18093C4001092C5008B
:1019E00088E18093C10086E08093C2005098589AA5
:1019F000259A80E0CDDFBB24B39455DF8033A9F175
:101A00008133A1F450DF803209F087C184E12EDFF9
:101A100081E42CDF86E52ADF82E528DF80E226DF0D
:101A200089E424DF83E522DF80E511C1803429F4D5
:101A30003ADF8638D0F037DF18C0813491F433DFD5
:101A4000803811F482E067C1813811F481E063C10C
:101A5000823811F480E15FC1883909F05BC183E00D
:101A60005AC1823421F484E15BDF7DDFC6CF853447
:101A700011F485E0F9CF8035C1F38235B1F38135BA
:101A8000A1F3853539F40FDF809306010CDF8093D5
:101A90000701EBCF8635A1F406DF803371F403DF55
:101AA00002DF082F00DF002311F48EE134C1013082
:101AB00011F483E930C18AE02EC183E031DF2AC10D
:101AC000843609F0C8C0EFDE80930902ECDE809313
:101AD000080280910C028E7F80930C02E4DE853434
:101AE00029F480910C02816080930C0208E011E0DF
:101AF0006801EE24FF2407C0D6DEF60181936F0152
:101B00000894E11CF11C8091080290910902E816EA
:101B1000F90690F3C8DE803209F0FFC080910C0214
:101B200080FF2AC08091060190910701880F991FBC
:101B3000909307018093060180E090E015C0F99929
:101B4000FECF209106013091070132BD21BDF80181
:101B500041918F0140BDFA9AF99A2F5F3F4F309320
:101B60000701209306010196209108023091090295
:101B70008217930720F36AC080910701880F880BB2
:101B80008B2180930B028091060190910701880FB1
:101B9000991F90930701809306018091080280FFAE
:101BA00009C0809108029091090201969093090260
:101BB00080930802F894F999FECF1127E09106016D
:101BC000F0910701C8E0D1E08091080290910902EC
:101BD000103091F40091570001700130D9F303E007
:101BE00000935700E8950091570001700130D9F338
:101BF00001E100935700E895099019900091570072
:101C000001700130D9F301E000935700E895139576
:101C1000103298F011270091570001700130D9F36C
:101C200005E000935700E8950091570001700130DE
:101C3000D9F301E100935700E8953296029709F035
:101C4000C7CF103011F00296E5CF112484E10EDEEB
:101C500080E10CDED2CE843709F04DC024DE8093C3
:101C6000090221DE8093080280910601909107010C
:101C7000880F991F909307018093060114DE9091BD
:101C80000C02853411F4916001C09E7F90930C0288
:101C90000ADE803209F0B1CE84E1E8DD00E010E038
:101CA00022C080910C0280FF0BC0F999FECF809179
:101CB00006019091070192BD81BDF89A80B507C0D9
:101CC00081FD06C0E0910601F09107018491CEDD0F
:101CD00080910601909107010196909307018093EE
:101CE00006010F5F1F4F80910802909109020817AB
:101CF0001907B8F2ADCF853759F4D5DD803269F4D4
:101D000084E1B4DD8EE1B2DD83E9B0DD8AE09FCF0E
:101D1000863719F480E00DDE70CE809103018F5F6D
:101D200080930301853009F068CEE0910401F091C1
:0A1D30000501099562CEF894FFCF7B
:021D3A00800027
:0400000300001800E1
:00000001FF
